:020000040000FA
:100000000C945D000C9485000C9485000C94850084
:100010000C9485000C9485000C9485000C9485004C
:100020000C9485000C9485000C9485000C9485003C
:100030000C9485000C9485000C9485000C9485002C
:100040000C94AE020C9485000C947C020C94560225
:100050000C9485000C9485000C9485000C9485000C
:100060000C9485000C94850000000008000201003B
:100070000003040700000000000000000000000072
:10008000250028002B0000000000240027002A0083
:10009000040404040404040402020202020203032E
:1000A0000303030301020408102040800102040836
:1000B0001020010204081020240411241FBECFEFD9
:1000C000D8E0DEBFCDBF11E0A0E0B1E0E8E4FEE0A3
:1000D00002C005900D92A232B107D9F721E0A2E249
:1000E000B1E001C01D92A03DB207E1F710E0CDE5FF
:1000F000D0E004C02197FE010E945104CC35D10705
:10010000C9F70E94F8020C9422070C94000090E0BA
:10011000FC01EC55FF4F249180579F4FFC018491C7
:10012000882399F090E0880F991FFC01EA57FF4F50
:10013000A591B491FC01E458FF4F859194918FB73C
:10014000F894EC91E22BEC938FBF0895AF92BF929D
:10015000CF92DF92EF92FF920F931F93CF93DF9393
:100160006C017B018B01040F151FEB015E01AE18C2
:10017000BF08C017D10759F06991D601ED91FC91E4
:100180000190F081E02DC6010995892B79F7C50111
:10019000DF91CF911F910F91FF90EF90DF90CF9063
:1001A000BF90AF900895FC01538D448D252F30E012
:1001B000842F90E0821B930B541710F0CF96089574
:1001C00001970895FC01918D828D981761F0A28DA1
:1001D000AE0FBF2FB11D5D968C91928D9F5F9F7367
:1001E000928F90E008958FEF9FEF0895FC01918D1D
:1001F000828D981731F0828DE80FF11D858D90E08A
:1002000008958FEF9FEF0895FC01918D228D892F26
:1002100090E0805C9F4F821B91098F73992708950E
:100220008DE291E00E94040121E0892B09F420E095
:10023000822F089580E090E0892B29F00E94100120
:1002400081110C9400000895FC01A48DA80FB92F12
:10025000B11DA35ABF4F2C91848D90E001968F73EE
:100260009927848FA689B7892C93A089B1898C910D
:10027000837080648C93938D848D981306C002885C
:10028000F389E02D80818F7D80830895EF92FF9226
:100290000F931F93CF93DF93EC0181E0888F9B8DA9
:1002A0008C8D98131AC0E889F989808185FF15C063
:1002B0009FB7F894EE89FF896083E889F989808186
:1002C0008370806480839FBF81E090E0DF91CF9155
:1002D0001F910F91FF90EF900895F62E0B8D10E077
:1002E0000F5F1F4F0F731127E02E8C8D8E110CC0E6
:1002F0000FB607FCFACFE889F989808185FFF5CF31
:10030000CE010E942401F1CFEB8DEC0FFD2FF11DEA
:10031000E35AFF4FF0829FB7F8940B8FEA89FB896D
:1003200080818062CFCFCF93DF93EC01888D8823CB
:10033000B9F0AA89BB89E889F9898C9185FD03C048
:10034000808186FD0DC00FB607FCF7CF8C9185FF2D
:10035000F2CF808185FFEDCFCE010E942401E9CF4D
:10036000DF91CF91089590E0FC01E859FF4F24916F
:10037000FC01EC55FF4F3491FC01E057FF4FE49135
:10038000EE23C9F0222339F0233001F1A8F4213003
:1003900019F1223029F1F0E0EE0FFF1FE458FF4F72
:1003A000A591B4918FB7F894EC91611126C0309566
:1003B0003E233C938FBF08952730A9F02830C9F021
:1003C000243049F7809180008F7D03C080918000A8
:1003D0008F7780938000DFCF84B58F7784BDDBCFAC
:1003E00084B58F7DFBCF8091B0008F778093B00074
:1003F000D2CF8091B0008F7DF9CF3E2BDACF3FB7BF
:10040000F8948091270190912801A0912901B09141
:100410002A0126B5A89B05C02F3F19F00196A11D02
:10042000B11D3FBFBA2FA92F982F8827BC01CD013E
:10043000620F711D811D911D42E0660F771F881F9D
:10044000991F4A95D1F708958F929F92AF92BF92CC
:10045000CF92DF92EF92FF924B015C010E94FF016D
:100460006B017C010E94FF016C197D098E099F09B7
:10047000683E734081059105A8F321E0821A910836
:10048000A108B10888EEC80E83E0D81EE11CF11C5B
:1004900081149104A104B10429F7FF90EF90DF903B
:1004A000CF90BF90AF909F908F9008951F920F9222
:1004B0000FB60F9211242F933F934F935F936F9337
:1004C0007F938F939F93AF93BF93EF93FF938DE2AF
:1004D00091E00E942401FF91EF91BF91AF919F9114
:1004E0008F917F916F915F914F913F912F910F90DD
:1004F0000FBE0F901F9018951F920F920FB60F927C
:1005000011242F938F939F93EF93FF93E0913D01DD
:10051000F0913E018081E0914301F091440182FD20
:100520001BC09081809146018F5F8F73209147019E
:10053000821741F0E0914601F0E0E35DFE4F958FB8
:1005400080934601FF91EF919F918F912F910F9092
:100550000FBE0F901F9018958081F4CF1F920F92BD
:100560000FB60F9211242F933F938F939F93AF93C6
:10057000BF938091230190912401A0912501B09116
:1005800026013091220123E0230F2D3758F50196E3
:10059000A11DB11D2093220180932301909324017A
:1005A000A0932501B0932601809127019091280105
:1005B000A0912901B0912A010196A11DB11D80933E
:1005C000270190932801A0932901B0932A01BF919C
:1005D000AF919F918F913F912F910F900FBE0F90F0
:1005E0001F90189526E8230F0296A11DB11DD2CFAA
:1005F000789484B5826084BD84B5816084BD85B5FE
:10060000826085BD85B5816085BD80916E00816009
:1006100080936E00109281008091810082608093AF
:1006200081008091810081608093810080918000B1
:100630008160809380008091B10084608093B100DC
:100640008091B00081608093B00080917A008460D6
:1006500080937A0080917A00826080937A00809102
:100660007A00816080937A0080917A00806880931C
:100670007A001092C1008CE00E94870088E00E94FE
:1006800087008DE00E94870087E00E948700E0914C
:100690003D01F0913E0182E08083E0913901F091CB
:1006A0003A011082E0913B01F0913C018FEC808394
:1006B00010924501E0914101F091420186E0808372
:1006C000E0913F01F0914001808180618083E09161
:1006D0003F01F0914001808188608083E0913F017B
:1006E000F0914001808180688083E0913F01F0912A
:1006F000400180818F7D8083C2E1D1E00FEF1FEF49
:1007000080E0E82E80E0F82E8DE291E00E94040166
:1007100018161906ECF48DE291E00E94E200809335
:100720002B0190932C019F938F93DF93CF930E9483
:1007300057040F900F900F900F9080912B01909184
:100740002C018230910509F457C0B4F4019739F1B6
:1007500010932C0100932B0168EE73E080E090E091
:100760000E942402E114F10479F20E94100188230E
:1007700059F20E940000C8CF8330910509F449C0A6
:10078000049731F761E08DE00E94B3016AEF70E0F9
:1007900080E090E00E94240260E08DE046C061E0CD
:1007A0008CE00E94B30148E050E065E171E08DE229
:1007B00091E00E94A60042E050E06EE171E08DE21F
:1007C00091E00E94A6006AEF70E080E090E00E9455
:1007D000240260E08CE00E94B30161E088E00E94A6
:1007E000B3016AEF70E080E090E00E94240260E0D4
:1007F00088E00E94B301ACCF61E08DE00E94B301BC
:100800006AEF70E080E090E00E94240260E08DE0FA
:10081000E2CF61E08CE00E94B3016AEF70E080E01B
:1008200090E00E94240260E08CE00E94B30161E04D
:1008300087E00E94B3016AEF70E080E090E00E94E0
:10084000240260E087E0D5CFEDE2F1E0138212826E
:1008500088EE93E0A0E0B0E084839583A683B7831D
:1008600084E091E09183808385EC90E09587848794
:1008700084EC90E09787868780EC90E0918B808B6A
:1008800081EC90E0938B828B82EC90E0958B848B53
:1008900086EC90E0978B868B118E128E138E148EC1
:1008A0000895EE0FFF1F0590F491E02D0994B0E03C
:1008B000A0E0EDE5F4E00C94FB06AE014B5F5F4F6A
:1008C000FA0161917191AF018091CC019091CD01BC
:1008D0000E946D04E2E00C941707ABE0B0E0E3E7A0
:1008E000F4E00C94EB067C013B018A01FC011782C9
:1008F0001682838181FFC8C1CE0101965C01F70198
:100900009381F30193FD859193FF81913F018823AA
:1009100009F453C1853239F493FD859193FF819198
:100920003F01853229F4B70190E00E945D06E7CFD0
:10093000912C212C312CFFE1F31538F08B3211F181
:1009400090F4803209F1833229F137FC3CC020ED6C
:10095000280F2A3050F536FE20C08AE0989E200DE0
:100960001124922E06C08D3291F0803371F7689475
:1009700030F8F30193FD859193FF81913F0181113F
:10098000DACF21C0689431F8689432F8F2CF6894D5
:1009900033F8EFCF689434F8ECCFEAE02E9E200DC8
:1009A0001124222E689435F8E4CF8E3229F436FCD7
:1009B00004C1689436F8DDCF8C3619F4689437F8A2
:1009C000D8CF8836B1F2982F9F7D95549330E0F0C0
:1009D0008336A1F18337C1F1833509F063C0280163
:1009E000F2E04F0E511CF801C080D180692D70E0FB
:1009F00036FC02C06FEF7FEFC6010E9447064C0134
:100A0000689437F882010AC00C5F1F4FFFE3F98337
:100A100088248394912C6501E89437F833FE2DC027
:100A2000522C8114910471F5552009F468CFB70157
:100A300080E290E00E945D065A94F6CFF801808132
:100A400089830E5F1F4FE4CF2801F2E04F0E511C47
:100A5000F801C080D180692D70E036FC02C06FEFD4
:100A60007FEFC6010E9452064C018201D5CFB7012B
:100A700080E290E00E945D062A942814190409F08F
:100A8000B0F7CECFF60137FC859137FE81916F012B
:100A9000B70190E00E945D0651105A94F1E08F1A60
:100AA0009108BFCF843619F0893609F077C0F80174
:100AB00037FE6BC060817181828193810C5F1F4F13
:100AC000F32DFF763F2E97FF09C090958095709586
:100AD00061957F4F8F4F9F4F689437F82AE030E041
:100AE000A5010E948D06C82ECA188C2C432C36FEF8
:100AF0000CC0E89440F8C91440F434FE05C032FC40
:100B000003C0F32DFE7E4F2E892C44FE95C0FE01BE
:100B1000EC0DF11D8081803309F087C0242D297EE2
:100B2000422E842D8870582E43FC95C040FE8FC005
:100B30009C2C821418F42C0C922C981844FE91C012
:100B4000B70180E390E00E945D0642FE09C088E79D
:100B500090E041FE02C088E590E0B7010E945D068A
:100B6000C91408F48AC0CA94D12C9FEFC91AD90AB3
:100B7000CA0CDB1CF60182916F01B70190E00E9464
:100B80005D06AC14BD04B1F74FCF60817181072EB3
:100B9000000C880B990B0E5F1F4F92CFD32CE8945B
:100BA000D4F82AE030E0853739F1232D297FD22E81
:100BB0008F3601F148F48835A9F0F70186819781D5
:100BC0002B96E2E10C940707803749F08837A9F7A4
:100BD000D4FE02C06894D2F820E130E00DC06894E1
:100BE000D4F8F6CF34FE03C0822F8660D82E20E1E1
:100BF00032E002C028E030E0F801D7FE0FC060818B
:100C00007181828193810C5F1F4FA5010E948D0627
:100C1000C82ECA183D2CE89437F867CF60817181DF
:100C200090E080E00E5F1F4FF0CF42FC02C0839443
:100C300078CF8394839475CF842D867809F471CF0F
:100C4000F6CFB70180E290E00E945D0683948214A3
:100C5000C0F3512C73CF522C5818821408F46ECF65
:100C6000F8CF842D867809F47BCF8BE241FE80E2B9
:100C700047FC8DE2B70190E071CFB70180E390E0CF
:100C80000E945D069A946CCF8FEF9FEF99CFFC0185
:100C90000590615070400110D8F7809590958E0FA7
:100CA0009F1F0895FC016150704001900110D8F71A
:100CB000809590958E0F9F1F08950F931F93CF934C
:100CC000DF93182F092FEB018B8181FD09C01FEFE6
:100CD0000FEF812F902FDF91CF911F910F910895EA
:100CE00082FF14C02E813F818C819D812817390796
:100CF0003CF4E881F981CF010196998388831083C0
:100D00008E819F8101969F838E83E3CFE885F9854D
:100D1000812F0995892BA1F3DACFFA01AA27283070
:100D200051F1203181F1E8946F936E7F6E5F7F4FB8
:100D30008F4F9F4FAF4FB1E03ED0B4E03CD0670F34
:100D4000781F891F9A1FA11D680F791F8A1F911D87
:100D5000A11D6A0F711D811D911DA11D20D009F4D7
:100D600068943F912AE0269F11243019305D319319
:100D7000DEF6CF010895462F4770405D4193B3E002
:100D80000FD0C9F7F6CF462F4F70405D4A3318F0A9
:100D9000495D31FD4052419302D0A9F7EACFB4E05A
:100DA000A6959795879577956795BA95C9F7009712
:100DB0006105710508959B01AC010A2E06945795B3
:100DC000479537952795BA95C9F7620F731F841F0A
:100DD000951FA01D08952F923F924F925F926F92A0
:100DE0007F928F929F92AF92BF92CF92DF92EF92BB
:100DF000FF920F931F93CF93DF93CDB7DEB7CA1B3C
:100E0000DB0B0FB6F894DEBF0FBECDBF09942A8866
:100E1000398848885F846E847D848C849B84AA840E
:100E2000B984C884DF80EE80FD800C811B81AA819B
:100E3000B981CE0FD11D0FB6F894DEBF0FBECDBF66
:100E4000ED010895F894FFCF000000004601A600D0
:100E5000D30093010401E200F600256400455351DC
:0A0E60005545524441000D0A000000
:107E0000112484B714BE81FFF0D085E080938100F7
:107E100082E08093C00088E18093C10086E0809377
:107E2000C20080E18093C4008EE0C9D0259A86E02C
:107E300020E33CEF91E0309385002093840096BBD3
:107E4000B09BFECF1D9AA8958150A9F7CC24DD24C4
:107E500088248394B5E0AB2EA1E19A2EF3E0BF2EE7
:107E6000A2D0813461F49FD0082FAFD0023811F036
:107E7000013811F484E001C083E08DD089C08234E0
:107E800011F484E103C0853419F485E0A6D080C0E4
:107E9000853579F488D0E82EFF2485D0082F10E0AE
:107EA000102F00270E291F29000F111F8ED06801E7
:107EB0006FC0863521F484E090D080E0DECF843638
:107EC00009F040C070D06FD0082F6DD080E0C81688
:107ED00080E7D80618F4F601B7BEE895C0E0D1E017
:107EE00062D089930C17E1F7F0E0CF16F0E7DF06D8
:107EF00018F0F601B7BEE89568D007B600FCFDCFD4
:107F0000A601A0E0B1E02C9130E011968C91119780
:107F100090E0982F8827822B932B1296FA010C0160
:107F200087BEE89511244E5F5F4FF1E0A038BF0790
:107F300051F7F601A7BEE89507B600FCFDCF97BE46
:107F4000E89526C08437B1F42ED02DD0F82E2BD052
:107F50003CD0F601EF2C8F010F5F1F4F84911BD097
:107F6000EA94F801C1F70894C11CD11CFA94CF0C13
:107F7000D11C0EC0853739F428D08EE10CD085E9AC
:107F80000AD08FE07ACF813511F488E018D01DD067
:107F900080E101D065CF982F8091C00085FFFCCF94
:107FA0009093C60008958091C00087FFFCCF809118
:107FB000C00084FD01C0A8958091C6000895E0E648
:107FC000F0E098E1908380830895EDDF803219F02E
:107FD00088E0F5DFFFCF84E1DECF1F93182FE3DFCA
:107FE0001150E9F7F2DF1F91089580E0E8DFEE27F6
:047FF000FF270994CA
:027FFE00040479
:00000001FF
